:1000000004308A00A72C00000A108A100A11820707
:1000100028340C3401340634C4272027C824452A48
:1000200020224F10CC26B31A00004E24C92254229D
:100030004F1D251832173233000043003C30840036
:1000400083130008031932280130F800F701F70B79
:100050002728F80B26284A30F700F70B2D283028E0
:10006000800B24280800431837280812382808165F
:10007000831608128312C3183F2888124028881656
:100080008316881283124319472808134828081733
:10009000831608138312C3194F2888135028881712
:1000A0008316881300008312881583168811582838
:1000B000831288118316881183120800C4018316E5
:1000C000081600308312081A0130C40483168816FB
:1000D00000308312881A0130F7000310F70D7708FB
:1000E000C4048316081700308312081B0130F70080
:1000F000F70DF70DFC30F7057708C4048316881751
:1001000000308312881B0130F700F70DF70DF70D53
:10011000F830F7057708C4044408F8000800881090
:100120008316881008168816081788178312081572
:1001300083160811000083128815831688110000A9
:1001400083125E207808C30088118316881100008E
:100150008312881583168811000083125E207808A8
:10016000C200881183168811081288120813881398
:100170008312430EF700F030F70577084204F800C9
:100180007808C200C21FC62883169228C008031D23
:10019000CB288810CC28881483168810000083127E
:1001A0000811831608110000831288118316881124
:1001B0008312410EC2000F30C2054208C300332033
:1001C00041080F39C200C30033200800831608120B
:1001D0008812081388138811881008118312881058
:1001E0008316881083120811831608118312881150
:1001F000831688110F308312BC001E200130AE0020
:100200002E08033C031C0C290330C30033200530A7
:10021000BC001E20AE0A00290230C3003320AE010C
:100220002E08033C031C1D292E080420AF00C0012A
:100230002F08C1008F20AE0A10298A110A12B62C8D
:100240003D0B2429BE0138293D08023C031D2B2902
:100250004030BE0038293D08033C031D32291430CC
:10026000BE0038293D08043C031D38295430BE0027
:1002700001303C02BE073E088038BF00C0013F0885
:10028000C1008F2008003B080C3A03194E29063A9A
:1002900003195629023A03195C296129C00101306A
:1002A000C1008F200230BC001E2066290130BC0036
:1002B0000230BD0020216629C0011030C1008F200E
:1002C00066290130C0003B08C1008F2008000B08E0
:1002D000AE008B13831603178C170C14000000005C
:1002E00083120313AE1B8B1703170C087F390319F6
:1002F000BB290313AE0003170D080313AF00031748
:100300000F080313B0002E08BB0043212F0803176A
:100310008D000313300803178F0003130B08B1007F
:100320008B13831603178C170C1400000000831224
:100330000313B11B8B1703170C0D0E0D7F39031917
:10034000BB290313AE0003170D080313AF000317F7
:100350000F080313B0002E08BB0043212F0803171A
:100360008D000313300803178F008D0A03198F0ABD
:10037000031367290317031308008E30F7002F08B3
:10038000F8002E08F900FA01F808031DD1297908B0
:10039000F800F9010830F702F808031DD129F70128
:1003A000D9290310F81BD829F90DF80DF703D12925
:1003B000F8138A110A12E92C3B0803194C2AC300CE
:1003C0003F0803194C2AC3070318ED297F30C302E5
:1003D000031C4C2A03194C2AF1298130C307031846
:1003E0004C2A4308F700F801F901FA013C08C7005C
:1003F000C7173D08C6003E08C5001830C300C40139
:10040000451C1A2A4208FA07031C0C2AF90A031D84
:100410000C2AF80A0319C4174108F907031C132A08
:10042000F80A0319C4174008BD00BD173D08F807B6
:100430000318C417C40DF80CF90CFA0CC70CC60C41
:10044000C50C0310C30BFF290130F70703184C2A12
:10045000F81B312AC70DFA0DF90DF80DF703031932
:100460004C2AC71F422AFA0A031D422AF90A031D11
:10047000422AF80A031D422AF80CF90CFA0CF70A72
:1004800003194C2A3C08C4004008C406C41F4A2A69
:10049000F817502AF813502AF701F801F901FA0168
:1004A000080032080319162BBE0036080319162B54
:1004B000BE02031C602A7F30BE070318162B662A73
:1004C0008130BE02031C162B0319162B3E08F700C1
:1004D000F801F901FA01BD013308BC00BC1734086A
:1004E000BB003508BA001930BE003908BA0203183B
:1004F000892A0130BB020318892ABC020318892A01
:10050000BD020318892ABD0ABC0ABB0A3908BA070A
:10051000BB2A3808BB020318A42A0130BC02031806
:10052000A42ABD020318A42ABD0ABC0A3808BB07C6
:100530003908BA07031CBB2ABB0A031DBB2ABC0A25
:10054000031DBB2ABD0ABB2A37088038BC0203182A
:10055000BA2A0130BD020318BA2ABD0A370880380A
:10056000BC073808BB07031C982ABC0A031D982A3D
:10057000BD0A982A7A14BE0BBE2AC92A0310BA0DE6
:10058000BB0DBC0DBD0D0310FA0DF90DF80DBF0D1F
:10059000752A3F1CD12A0310F80CF90CFA0CBF0C79
:1005A000D42AF7030319162BBF1BFD2A0310BA0D1B
:1005B000BB0DBC0DBD0D3908BA020318E92A013084
:1005C000BB020318E92ABC020318E92ABD02031C76
:1005D0000C2B3808BB020318F42A0130BC020318A4
:1005E000F42ABD02031C0C2B37088038BC02031808
:1005F000FD2A0130BD02031C0C2BFA0A031D0C2B33
:10060000F90A031D0C2BF80A031D0C2BF70A03191A
:10061000162BF80CF90CFA0C3308BE003708BE068E
:10062000BE1F142BF8171A2BF8131A2BF701F80119
:10063000F901FA018A110A12182D0B08AF008B1369
:10064000831603178C170C14000000008312031389
:10065000AF1B8B170318542B03170C087F39031398
:10066000AF0003170D080313B00003170F0803139F
:10067000B1002F08BB004321300803178D0003137E
:10068000310803178F0003130B08B2008B13831676
:1006900003178C170C140000000083120313B21B05
:1006A0008B17AE0B542B732B03170C0D0E0D7F39CC
:1006B0000313AF0003170D080313B00003170F084F
:1006C0000313B1002F08BB004321300803178D002E
:1006D0000313310803178F008D0A03198F0A0310C3
:1006E0000313AE0B1D2B8A110A12462D83187B2B88
:1006F000433084008313F701F801F901FA01C301C3
:10070000C401C501C6014208410440043F04031965
:10071000B92B2030C7000310BB0DBC0DBD0DBE0DA5
:10072000C30DC40DC50DC60D42084602031DA22B04
:1007300041084502031DA22B40084402031DA22BC1
:100740003F084302031CB32B3F08C3024008031CAD
:10075000400FC4024108031C410FC5024208031C9C
:10076000420FC6020314F70DF80DF90DFA0DC70B71
:100770008B2B43088000840A44088000840A4508C3
:100780008000840A4608800008000408B30032088C
:10079000B5000319E42B3108BE003008BD002F0856
:1007A000BC002E08BB00C201C1012030C000823055
:1007B000BF00DC217A08B1007908B0007808AF00EA
:1007C0007708AE00B50BCB2B3108BE003008BD005A
:1007D0002F08BC002E08BB003B08B63CBB00FA014A
:1007E0003C08BF00BC170310BC0CBD0CBE0CFA0CBF
:1007F000F90CF80CF70CBB0BF32BBF1F0A2CF709F5
:10080000F809F909FA09F70A0319F80A0319F90AA4
:100810000319FA0A7A08B1007908B0007808AF0025
:100820007708AE00B11F212CB303B316AE09AF0990
:10083000B009B109AE0A0319AF0A0319B00A0319C6
:10084000B10A3B30BA009A30B900CA30B800B701DB
:100850000A30B50032080319B30A83142E3084001D
:1008600083133108BE003008BD002F08BC002E08DD
:10087000BB003A08C2003908C1003808C000370878
:10088000BF0076237808F708031D592C320A350279
:100890000319592C330803195B2C0F39350203193E
:1008A000532C03188B2CB31B8B2C331B5B2C20304D
:1008B000872C2030B305B31E692CB3123208031DF8
:1008C000B3037708B3002D30BB0043213308F70092
:1008D000B30132083502031D772C7708B3002E30A0
:1008E000BB0043213308F7002030B305003030301F
:1008F000B31E872CB3123208031DB3037708B3006D
:100900002D30BB0043213308F700B3013030F70727
:100910007708BB00432183103A08BE003908BD00A8
:100920003808BC003708BB00C201C101C0010A3051
:10093000BF0076237A08BA007908B9007808B800B1
:100940007708B700B50B2D2C8A110A12532D030816
:100950001F398300A101A00183161F149F141F15C6
:100960009F1107309C0083138312E6280C30BB00D4
:1009700043210130BC00BD0020210C3003178D0045
:1009800000308F000313672183161F1383121F1774
:100990009F1783169F1783121F1483161F149F100F
:1009A0001F159F110030F80083121F08C739780403
:1009B0009F001F151F19DA2C1E08F90083161E0848
:1009C000F8007908FA001E088312AE007908AF001B
:1009D000BD297A08A9007908A8007808A700770837
:1009E000A6002908BE002808BD002708BC0026086C
:1009F000BB00C201C1012030C0008130BF00DC213A
:100A00007A08B1007908B0007808AF007708AE0026
:100A10007A08B5007908B4007808B3007708B20006
:100A2000B901C030B8007F30B7008830B600512A15
:100A30007A08A5007908A4007808A3007708A20026
:100A40002508BE002408BD002308BC002208BB0006
:100A5000C201C1014830C0008530BF00DC217A08E6
:100A6000AD007908AC007808AB007708AA00013027
:100A7000BC000230BD002021153003178D0000306E
:100A80008F00031008300313AE001D2BC930840003
:100A90002D08B1002C08B0002B08AF002A08AE00CA
:100AA0000230B200C52BDF30BB0043211D300317DD
:0E0AB0008D0000308F0003136721D92C6300E6
:02400E00313F40
:00000001FF
;PIC16F877A
;CRC=A618  CREATED="16-Apr-22 00:51"
